:020000040800F2
:1000000000000820499E0008C1510008C5510008A1
:10001000C9510008CD510008D1510008000000006E
:100020000000000000000000000000002141000866
:10003000D551000800000000C14100081553000818
:10004000999E0008999E0008999E0008999E0008B4
:10005000999E0008999E0008D9510008E1510008B6
:10006000E9510008F1510008F95100080152000857
:100070000D52000819520008999E000825520008E8
:1000800031520008999E0008999E0008999E000828
:10009000999E0008999E0008999E00083D5200080C
:1000A000999E000855520008999E0008999E0008E4
:1000B000999E0008999E0008999E0008999E000844
:1000C000999E0008999E0008999E000871520008A8
:1000D000999E00087D520008999E00089D520008D4
:1000E000999E0008999E0008999E0008999E000814
:1000F000999E0008999E0008999E0008B552000834
:10010000999E0008999E0008C1520008999E000817
:10011000CD520008999E0008999E0008999E0008FB
:10012000E5520008999E0008999E0008F1520008C7
:10013000FD520008999E0008999E0008999E0008AB
:10014000999E0008999E0008999E0008999E0008B3
:10015000999E0008999E0008999E0008999E0008A3
:10016000999E0008999E0008999E0008999E000893
:10017000999E0008999E0008999E000800000000C2
:10018000999E0008999E0008999E0008999E000873
:10019000999E0008999E000809530008999E00083E
:1001A000999E0008999E0008999E0008999E000853
:1001B000999E0008999E0008999E0008999E000843
:1001C000999E0008999E000800000000999E000872
:1001D000999E0008999E0008999E0008999E000823
:1001E000999E0008999E0008999E0008999E000813
:0801F000999E0008999E000889
:1002000010B5054C237833B9044B13B10448AFF350
:1002100000800123237010BDF401002000000000C5
:10022000B8EB000808B5034B1BB103490348AFF313
:10023000008008BD00000000F8010020B8EB0008B5
:1002400053B94AB9002908BF00281CBF4FF0FF313D
:100250004FF0FF3000F072B9ADF1080C6DE904CE3B
:1002600000F006F8DDF804E0DDE9022304B0704791
:100270002DE9F047089E04468846002B4BD18A4260
:10028000154667D9B2FA82F24AB1C2F1200701FAE3
:1002900002F320FA07F7954047EA030894404FEA33
:1002A000154E230CB8FBFEF71FFA85FC0EFB1788D2
:1002B00043EA084307FB0CF1994209D9EB1807F10F
:1002C000FF3080F01B81994240F21881023F2B449D
:1002D0005B1AA4B2B3FBFEF00EFB103344EA0344F6
:1002E00000FB0CFCA44509D92C1900F1FF3380F068
:1002F0000781A44540F2048102382C4440EA0740BB
:10030000A4EB0C0400271EB1D4400023C6E900432F
:100310003946BDE8F0878B4209D9002E00F0EB800A
:100320000027C6E9000138463946BDE8F087B3FA30
:1003300083F7002F47D18B4202D3824200F2FA802A
:10034000841A61EB030301209846002EE0D0C6E931
:100350000048DDE702B9FFDEB2FA82F2002A40F07F
:100360008F80491B4FEA154E1FFA85F80127B1FB14
:10037000FEFC230C0EFB1C1143EA014308FB0CF1AD
:10038000994207D9EB180CF1FF3002D2994200F2E2
:10039000CD808446591AA3B2B1FBFEF00EFB1014B7
:1003A00043EA044408FB00F8A04507D92C1900F1E2
:1003B000FF3302D2A04500F2B6801846A4EB080431
:1003C00040EA0C409FE7C7F1200CBB4022FA0CFE2C
:1003D0004EEA030E01FA07F420FA0CF521FA0CF3A9
:1003E0004FEA1E482543B3FBF8F92C0C08FB1933E0
:1003F0001FFA8EFA44EA034309FB0AF49C4202FA0C
:1004000007F200FA07F10BD91EEB030309F1FF30E5
:1004100080F087809C4240F28480A9F102097344F5
:100420001B1BADB2B3FBF8F008FB103345EA0344E5
:1004300000FB0AFAA24508D91EEB040400F1FF33C1
:100440006BD2A24569D90238744440EA0940A0FB46
:100450000289A4EB0A044C45C2464B4654D351D002
:10046000002E69D0B1EB0A0564EB030404FA0CFC1E
:10047000FD40FC404CEA0505C6E90054002747E76B
:10048000C2F1200320FA03F7954001FA02F021FAA5
:1004900003F34FEA154E3843010CB3FBFEF71FFA86
:1004A00085F80EFB173341EA034107FB08F38B4243
:1004B00004FA02F407D9691807F1FF3C2FD28B42E6
:1004C0002DD9023F2944CB1A81B2B3FBFEF00EFBBB
:1004D000103341EA034100FB08F38B4207D9691846
:1004E00000F1FF3C17D28B4215D902382944C91AB2
:1004F00040EA07473BE73746304609E70746E7E665
:100500001846FBE64145ABD2B8EB020A69EB0E0296
:1005100001381346A4E76046E9E7184695E76746C1
:10052000D1E781467CE702382C4447E7ACF1020C66
:100530002B442FE7384608E73746E9E6704700BF07
:10054000034613F8012B002AFBD1181A0138704713
:1005500001F0FF01102A2BDB10F0070F08D010F874
:10056000013B013A8B422DD010F0070F42B3F6D178
:10057000F0B441EA012141EA014122F007047FF091
:1005800000070023F0E80256083C85EA010586EAE8
:10059000010685FA47F5A3FA87F586FA47F6A5FA24
:1005A00087F68EB9EED1F0BC01F0FF0102F0070230
:1005B00032B110F8013B013A83EA010313B1F8D1DB
:1005C0000020704701387047002D06BF35460338BC
:1005D000073815F0010F07D1013015F4807F02BFF5
:1005E000013015F4C03F0130F0BC0138704700BF46
:1005F000F0B4038844884F6804FB03F45668D0F8CD
:1006000004C0A50832D00CF1100107F1100206F168
:100610001003284612ED037A013812ED046A01F145
:10062000100151ED076A02F1100251ED087A03F151
:10063000100376EE876A11ED067A77EE867A12ED70
:10064000066A43ED076A37EE067A43ED087A51ED04
:10065000057A52ED056A03ED067A77EEA67A43ED48
:10066000057AD7D12B019C441F441E4414F0030487
:100670001BD0D7ED007A012C9CED007A77EE877ABB
:10068000C6ED007A11D0DCED017A022C97ED017AEB
:1006900077EE877AC6ED017A07D0DCED027A97ED26
:1006A000027A77EE877AC6ED027A0020F0BC7047B6
:1006B00001804280436070472DE9F04F42684B68EB
:1006C00004882DED028B89B007924288049306922C
:1006D00044B34FEA84094FF0010B04279846B7EE64
:1006E000008A5E4609EB070A10E009F036FCAAEB27
:1006F00007003A460021404405EB09085D44002EFE
:1007000000F0C28009F029FC04370136A9EB070B81
:1007100008F10405A64288ED008A5A464FF0000110
:100720002846E2D1069B002B00F0A4809E0007998A
:100730001A1BDDF810C00F46B04603921D46321D4D
:10074000994602910592039BA9EB050E97ED007A5D
:10075000AB4200F08F8072463B46DFED4C6AD3ED32
:10076000007A01323344F5EEC07AF1EE10FAD8BFC8
:10077000F1EE677AF4EE667AF1EE10FA77FEA66A89
:100780009442ECD1B5EE407AF1EE10FA72D0F5EE6B
:10079000406AF1EE10FA6DD02A463B46D3ED006A6E
:1007A000013AC6EE877AE3EC017AF7D1494663460F
:1007B000D3ED006A0139C6EE877AE3EC017AF7D10E
:1007C0004FEA8E030498DDF808B001938E4558D0A7
:1007D0009BED007A5A462B46BA46D2ED007A013B91
:1007E000FAEC016AE6EEC77AE2EC017AF5D1C3448D
:1007F00002464B46E246D2ED007A013BFAEC016A32
:10080000E6EEC77AE2EC017AF5D130440131019B82
:100810008C429B44DAD1029B013DB444A8F1040808
:1008200003F104030293059B1F448CD1B5EE407A7B
:10083000F1EE10FA05D0002009B0BDEC028BBDE846
:10084000F08F079BD3ED007A069BF5EE407A03FB11
:1008500004F3F1EE10FA1C46EDD1079B043306E0D9
:10086000F3EC017AF5EE407AF1EE10FAE3D10135BE
:10087000A542F5D16FF0040009B0BDEC028BBDE8D4
:10088000F08FC3443044C1E7A8463DE700000000B4
:100890002DE9F04F53688BB04688099300234568D3
:1008A00006F0030E0593B308028805F120070293B2
:1008B000013BB1F802A005F110099BB206924FEA84
:1008C0000A14D1F804B05A1C07EB031CB3004FEA1A
:1008D0008A00089305EB0213019304FB02F3059AC7
:1008E00004934FEACA030393A9F110035F4600265D
:1008F0000793099B03EB8208029B002B63D0039BA9
:100900003A46DFED337AF9184B4613ED047A1518A1
:10091000D2ED006A103353ED074A2244E6EE877A9F
:1009200095ED005A13ED066A0D18D1ED005A2144D9
:1009300053ED056A9C4595ED007AE4EE857AE5EE87
:10094000867AE6EE877AE0D1049B1F44019BBEF1D4
:10095000000F1BD0D3ED006ABEF1010F97ED007AB6
:1009600007EB0002E6EE877A10D0D3ED016ABEF104
:10097000020F92ED007A02EB0001E6EE877A05D0D5
:10098000D3ED026A91ED007AE6EE877A0136E8EC63
:10099000017AB6B2B2450BEB8607ADD1069B059A3C
:1009A000019D013B089952442E469BB292B2894464
:1009B0000E4406938C4405920196002B94D1184660
:1009C0000BB0BDE8F08F079BDFED017ABFE700BFFA
:1009D00000000000F0B4038844884F6804FB03F46F
:1009E0005668D0F804C0A50832D00CF1100107F108
:1009F000100206F11003284612ED037A013812EDB9
:100A0000046A01F1100151ED076A02F1100251ED83
:100A1000087A03F1100376EEC76A11ED067A77EED5
:100A2000C67A12ED066A43ED076A37EE467A43ED61
:100A3000087A51ED057A52ED056A03ED067A77EEF4
:100A4000E67A43ED057AD7D12B019C441F441E441E
:100A500014F003041BD0DCED007A012C97ED007A32
:100A600077EEC77AC6ED007A11D0DCED017A022C60
:100A700097ED017A77EEC77AC6ED017A07D0DCED03
:100A8000027A97ED027A77EEC77AC6ED027A0020F5
:100A9000F0BC70472DE9F04FB0F8029087B0B0F885
:100AA00000A04FF0000E4FEA990347684FEACA02D0
:100AB000D1F804B00193013B04924FEA0A149BB2AF
:100AC00009F003094FEA8A001A0101332032059226
:100AD0001A0103FB04F303920293019B0BEB8E08B4
:100AE0000BB3049A07F1100308EB0201059A07EB18
:100AF000020C424653ED047A161810330D18C2ED5D
:100B0000007A224453ED077AC6ED007A53F8186C48
:100B10000E60214453F8146C63452E60EAD1039BA8
:100B20001F44029B9844B9F1000F11D03A68B9F103
:100B3000010F08EB0003C8F8002013D07968B9F161
:100B4000020F03EB000219600ED0BB680C37136074
:100B50000EF1010E1FFA8EFEF245BED1002007B045
:100B6000BDE8F08F0437F3E70837F1E708B5032055
:100B700000F076FA002004F0E5FA04F0C3FA002051
:100B800008BD00BF034A044B11681B780B44136077
:100B9000704700BF480C002000000020014B18687F
:100BA000704700BF480C0020002800F09280F8B584
:100BB000056C0446002D00F08280236CDB0604D512
:100BC0000023012084F83C30F8BD236C4E4A4F4985
:100BD0001A4023684E4D42F0020222644A6822F411
:100BE00040324A604A68606802434A605A68216934
:100BF00022F48072D4F808C0E7685A605868A66A80
:100C000040EA0120AE425860586820F040705860B9
:100C1000596841EA0C015960996821F400619960B2
:100C20009A6842EA07029A6055D09968E06A21F012
:100C3000706199609A6816439E60996821F04051EE
:100C400099609A6802439A609968A56921F0020147
:100C500094F8200099609A6842EA45029A60002858
:100C600042D15A6822F400625A60D86A0026E569C7
:100C700020F4700094F830C06A1E6769D86230466C
:100C8000DD6A45EA0255DD629D6825F400759D60C8
:100C9000996841EA4C219960996821F480619960D2
:100CA0009A6842EA87229A606664236C23F0030301
:100CB00043F001032364002384F83C30F8BD03F0C3
:100CC00039FC6564236C84F83C50DB063FF578AF53
:100CD0007BE7012070479A6822F070629A609A68F8
:100CE00022F040529A60AFE75868626A40F40060B0
:100CF000511E58605A6822F460425A605A6842EAAB
:100D000041325A60B1E700BFFDEEFFFF0023014012
:100D10000100000F90F83C30F0B5012B83B04FF08C
:100D20000004019400F0858005680124AB6880F818
:100D30003C40DF0714D4404B404E1C68AB68A6FB18
:100D4000046443F00103A40CAB6004EB440401947D
:100D5000019B2BB1019C013C0194019C002CF9D119
:100D6000AB68DE073BD5036C354C1C4044F4807403
:100D700004646B685C0505D5036C23F4405343F4AD
:100D800080530364036C13F480533ED0436C23F010
:100D90000603436404460027806B1346294E0A4627
:100DA00084F83C706FF02201C663274F274E07641A
:100DB000C664296005F14C016E6846F080666E607D
:100DC000AE6846F48076AE6000F03EFA204B5A687A
:100DD000D20607D12368986810F0405017D0002041
:100DE00003B0F0BD22681B498A4216D05B68DB065F
:100DF000F5D419498A42F2D1886810F04050EED1FA
:100E00008B6843F080438B60EAE74364C2E79A68EB
:100E100042F080429A6003B0F0BD936813F0405FE7
:100E200003D1936843F080439360094B00205B68D3
:100E3000D6E7022003B0F0BD0C00002083DE1B4388
:100E4000FEF8FFFF8D0E0008650E0008750E000805
:100E5000002301400020014000220140704700BFF4
:100E6000704700BF08B5806BFFF7FAFF08BD00BFF1
:100E7000704700BF08B54022836B1A6418465A6C4D
:100E800042F004025A64FFF7F3FF08BD836B1A6C4B
:100E900012F0500F1A6C10B523D142F40072196889
:100EA0001A648A6812F0405F17D19A69AAB9CA6AAF
:100EB00012F4700F02D08A6850050ED44A6822F0EE
:100EC00020024A601A6C22F480721A641A6CD104EF
:100ED00003D41A6C42F001021A641846FFF7BEFFF1
:100EE00010BDD20604D49B6BBDE81040DB6C1847E4
:100EF0001846FFF7BDFF10BD90F83C300022F0B55A
:100F0000012B83B0019200F09A800D6801220368E2
:100F1000092D80F83C20AFB28A6828D805EB450639
:100F20004FF0070C1C690CFA06FC02FA06F624EADC
:100F30000C041C611A6916431E614E68062E06EBEE
:100F400086022DD8053A1F24596B944007FA02F205
:100F500021EA04015963596B0A435A633C4A93429C
:100F600030D0002380F83C30184603B0F0BD07EBCA
:100F700047064FF0070CDC681E3EDFF8D8E00CFA9D
:100F800006FC754524EA0C04DC605BD002FA06F628
:100F9000DA681643DE604E68062E06EB8602D1D96B
:100FA0000C2E37D8A2F123041F26196BA64007FA8E
:100FB00004F221EA060119631C6B1443244A93428C
:100FC0001C63CED1122D33D0224B9D4201D0112D66
:100FD000C7D1214A1F4953688D4243F4000353602F
:100FE000BFD102F146721D4B02F52E321B6802F290
:100FF0008332A2FB03239B0C03EB83035B0001936F
:10100000019B002BADD0019B013B0193019B002B69
:10101000F9D1A6E7A2F141011F26DC6A8E4007FA4A
:1010200001F224EA0604DC62D96A0A43DA6295E72F
:10103000D2F8043343F48003C2F8043391E702206A
:1010400003B0F0BDDE6846EA0266DE6075E700BF09
:101050000020014012000010002301400C0000207D
:1010600007490002074BCA6800F4E06010B44FF66D
:10107000FF0422405DF8044B13431843C8607047D7
:1010800000ED00E00000FA05174BDB68C3F3022314
:1010900030B4C3F107051C1D042D28BF0425062C00
:1010A00018D9033B4FF0FF349C4022EA04044FF070
:1010B000FF32002802FA05F221EA020101FA03F2E6
:1010C00042EA04024FEA0212D2B206DB074B1A547C
:1010D00030BC704700242346E9E700F00F00044BC2
:1010E0001A5430BC704700BF00ED00E000E400E09F
:1010F00014ED00E0002807DB00F01F010123400988
:10110000024A8B4042F82030704700BF00E100E007
:10111000F8B50446FFF742FD002C53D002222368A5
:101120000021054684F835201A6884F8341022F02E
:1011300001021A6005E0FFF731FD401B05283AD88F
:1011400023681A68D107F6D4D4E90120E168024384
:101150001F68D4E904050A430243206AD4E9066102
:101160002A43354D32433D400A43616A0243042914
:1011700042EA050228D01A605A6922F00702114398
:10118000DAB22E4D5961103A2D492E48A5FB025274
:101190001940012513090022C05C032B4FF03F03C7
:1011A00088BF0431E06583401046A1658B606265AD
:1011B00084F83550F8BD032320221846626584F870
:1011C0003530F8BD0120F8BDD4E90B51A76A45EAD6
:1011D000010047F0040102431A605A6922F0070235
:1011E0001143002DCCD07EB1B6F5005F16D0022F92
:1011F00003D9032FC4D1EA01C2D5012340221846E6
:10120000626584F83530F8BD012F03D0F3D3022F87
:10121000B6D1F0E7B5F1C07FB2D1EEE7032FAFD87A
:1012200001A252F827F000BFFB110008F7110008D7
:10123000FB110008151200083F8010E0ABAAAAAA13
:1012400000FCFFFFD0EB0008F0B490F83440012C14
:1012500038D0012590F83540866DAC4280F8345086
:1012600029D104680227002580F835704565876814
:101270002568402F25F480252560636026D0A16075
:10128000E260C16D3F23026C8B40B360236843F082
:1012900016032360636943F0800363611AB1236816
:1012A00043F0080323602268002342F0010218463D
:1012B0002260F0BC70470022022380F834201846D8
:1012C000F0BC70470223F0BC18467047A260E16092
:1012D000D7E700BF70B50446866DFFF75FFC94F852
:1012E0003530022B06D0802200230120626584F86D
:1012F000343070BD23680546216C1A6822F016024E
:101300001A605A6922F080025A6139B31A6822F0D1
:1013100008021A601A6822F001021A6005E0FFF75D
:101320003DFC401B05280FD823681B6813F0010300
:10133000F5D1E16D3F2218468A400121B26084F860
:10134000343084F8351070BD0323202100226165FC
:10135000184684F8342084F8353070BDA26C002A19
:10136000D4D1D7E790F835200346022A03D0802253
:1013700001205A65704702680521002083F8351066
:10138000136823F001031360704700BFF0B50446F3
:1013900083B000200822664901900E68D4E91673D4
:1013A0009A403D682A4203D021680868400759D412
:1013B00001229A402A4203D021684969080674D460
:1013C00004229A402A4203D021680968890766D41A
:1013D00010229A402A4203D02168086800074BD4A3
:1013E00020229A402A4214D021680868C00610D5ED
:1013F000BA6094F83520052A63D00B6813F4802F67
:101400000B687ED0190340F18980E36B0BB1204655
:101410009847636D23B3636DDA071AD522680521F7
:10142000444B84F83510A3FB0636136823F0010300
:10143000B60A136002E01368DB0704D5019B013391
:10144000B3420193F7D90022012384F8342084F8B1
:101450003530E36C23B1204603B0BDE8F0401847B7
:1014600003B0F0BD086820F004000860BA60626D47
:1014700042F0010262659BE7BA600A6812F4802FAD
:101480000A6818D1D20503D40A6822F008020A605B
:10149000226C002AA4D020469047E36DA0E7BA60F2
:1014A000626D42F00402626592E7BA60626D42F0DA
:1014B0000202626584E71103EAD5A26C002AEAD130
:1014C0008EE70A68206C22F016020A604A6922F050
:1014D00080024A6138B30A6822F008020A603F229B
:1014E0000020012102FA03F3226DBB6084F834006E
:1014F00084F83510002AB3D0204603B0BDE8F04090
:10150000104713F4807380D10A68012022F0100282
:101510000A6084F8343084F8350076E7636C002B79
:101520007FF475AF75E7A26C002AD4D1D7E700BF6E
:101530000C000020B5814E1B2DE9F04FDFF82CC2C6
:1015400083B08E460025DFF82892D1F8008003E0B2
:101550000135102D00F0B6800123AB4008EA0301ED
:101560008B42F5D1DEF8044024F01007022F40F042
:10157000AC80EF0805F0070A4FF00F0BDEF81020E3
:1015800000EB87074FEA8A0A3E6A0BFA0AFB02FA67
:101590000AF24FEA450A26EA0B064FF0030B3243E4
:1015A0000BFA0AFB04F003063A626FEA0B020768C3
:1015B00006FA0AF617403E4306608668C4F3001731
:1015C00006EA020BDEF80C60AF4006FA0AF646EABD
:1015D0000B068660466826EA03031F434760C66819
:1015E000E700DEF8083002EA060203FA0AF343EAEB
:1015F0000203C360ACD5D9F8446025F0030705F0B9
:1016000003030F2246F4804607F180479B00C9F888
:10161000446007F59C37D9F8446002FA03FA06F4EF
:1016200080460196484E019AB042BA6822EA0A0200
:1016300020D006F58066B0425ED0444EB04260D005
:10164000434EB04262D0434EB04264D0424EB042AC
:101650006BD0424EB0426DD0414EB04260D0414E50
:10166000B0426CD0404EB0420CBF09260A2606FAA2
:1016700003F31A43BA60E603DCF800306FEA0102B4
:1016800005F1010554BF13400B43A703CCF800300C
:10169000DCF8043054BF13400B43E602CCF80430AE
:1016A000DCF8083054BF13400B43A402CCF80830D8
:1016B000DCF80C3054BF13400B43102DCCF80C3029
:1016C0007FF44AAF03B0BDE8F08F4FEA450A03222A
:1016D000D0F800B0013F04EA020602FA0AF2012F34
:1016E0006FEA020206FA0AF602EA0B0B46EA0B065A
:1016F00006603FF674AF60E7012606FA03F31A436B
:10170000B8E7022606FA03F31A43B3E7032606FAFC
:1017100003F31A43AEE7042606FA03F31A43A9E7D4
:10172000072606FA03F31A43A4E7052606FA03F38D
:101730001A439FE7062606FA03F31A439AE7082698
:1017400006FA03F31A4395E700000240000802403E
:10175000000C024000100240001402400018024039
:10176000001C02400020024000240240003C0140D6
:101770000038024002B9090481617047044A516986
:10178000014200D1704708B5506103F081FA08BDED
:10179000003C014000284DD0F8B590F84130044697
:1017A00003F0FF02002B40D02421E568D4E9003289
:1017B00084F84110012D186822F07061A26820F0B1
:1017C000010018601961996821F40041996028D0DE
:1017D00042F40442022D9A6002D14FF400625A6032
:1017E0005A68002114482027A6691043D4E904252B
:1017F00058602A43D868E56942EA0622266A20F43E
:1018000000403543D8600846DA601D601A6842F02F
:1018100001021A60616484F84170216384F8421007
:10182000F8BD42F400429A60DAE780F8402003F005
:10183000FFF8B9E7012070470080000290F84130BE
:10184000DBB2202B70B41FD190F84020012A1BD0AE
:1018500002682424002680F841401568344625F0AB
:1018600001051560156825F4805515601568294334
:101870001160116841F00101116080F8406080F84A
:101880004130204670BC70470224204670BC70472F
:1018900090F84130DBB2202B70B41ED190F840207C
:1018A000012A1AD002682424002680F841401468D6
:1018B000354624F001041460146824F4706444EA8A
:1018C00001211160116841F00101116080F8406050
:1018D00080F84130284670BC70470225284670BC0D
:1018E000704700BF084B82B008495A6C42F48042EE
:1018F0005A645B6C03F480430193019B4B6818436B
:10190000486002B0704700BF003802400038014014
:101910001B4A1C4B116C41F0805130B5116483B0EF
:10192000126C1C4602F080520192019A1A6842F42D
:1019300080321A60FFF732F9054605E0FFF72EF90D
:10194000401BB0F57A7F17D86368DA03F6D52368B1
:101950000C4D43F400332360FFF720F9044605E003
:10196000FFF71CF9001BB0F57A7F05D86B689B0365
:10197000F6D5002003B030BD032003B030BD00BF5A
:101980000038024000700040002800F034810368F5
:101990002DE9F041DD0782B0044635D5AB498A68B0
:1019A00002F00C02042A00F0FE808A6802F00C02A9
:1019B000082A00F0F4806368B3F5803F10D0002B54
:1019C00000F01B81B3F5A02FA04B1A6800F06281D4
:1019D00022F480321A601A6822F480221A6004E02D
:1019E0009A4A136843F480331360FFF7D7F8974D92
:1019F000064605E0FFF7D2F8801B642800F2EE806F
:101A00002B689A03F6D523689F0742D41A0717D587
:101A10006369002B00F0B0808C4B5A6F1D4642F07A
:101A200001025A67FFF7BAF8064605E0FFF7B6F875
:101A3000801B022800F2D2806B6F9B07F6D52368CB
:101A40005D076BD5814B1A6CD00000F1ED801A6CEC
:101A5000012542F080521A641B6C03F080530193FD
:101A6000019B7B4B1A68D10540F1A780A368012B2D
:101A700039D0002B00F0DA80052B744B1A6F00F080
:101A8000118122F001021A671A6F22F004021A670C
:101A90002EE06E4A916811F00C0F62D0916801F04F
:101AA0000C0108295AD0E368002B00F0DF80674B57
:101AB0001A681D4642F001021A60FFF76FF80646E9
:101AC00005E0FFF76BF8801B022800F287802B6887
:101AD0009807F6D52B68226923F0F80343EAC2037E
:101AE0002B60236892E7594A136F43F00103136791
:101AF000FFF754F8554E804641F2883705E0FFF76E
:101B00004DF8A0EB0800B84268D8336F9B07F6D5B4
:101B100025B14E4A136C23F080531364A369CBB1F3
:101B20004A4A916801F00C01082921D0022B136860
:101B300000F0C08023F0807314461360FFF72EF886
:101B4000054604E0FFF72AF8401B022846D8236820
:101B50009B01F7D4002002B0BDE8F0815268560224
:101B6000A1D43A4A126895073CD5E268012A39D0D7
:101B7000012002B0BDE8F081344B5A6F1D4622F0BF
:101B800001025A67FFF70AF8064604E0FFF706F875
:101B9000801B022822D86B6F9F07F7D44FE74A6853
:101BA00050027FF508AF294A126891037FF52CAFE8
:101BB0006268002A7FF428AFDAE71A681E4642F40A
:101BC00080721A60FEF7EAFF07463368DA053FF5D0
:101BD0004DAFFEF7E3FFC01B6428F6D9032002B027
:101BE000BDE8F081194920690A6822F0F80242EA4A
:101BF000C0020A600AE701207047144B1A681D46AC
:101C000022F480321A601A6822F480221A60FEF7E9
:101C1000C5FF064604E0FEF7C1FF801B6428DDD83F
:101C20002B689B03F7D4EEE600251AE7074B41F239
:101C300088381A6F1E4622F001021A671A6F22F0C6
:101C400004021A67FEF7AAFF074608E000380240C0
:101C500000700040FEF7A2FFC01B4045BED8336FA6
:101C60009807F7D4002D3FF459AF52E72C4B1A6870
:101C70001D4622F001021A60FEF790FF064604E0BE
:101C8000FEF78CFF801B0228A8D82B689907F7D491
:101C90002368BBE642F480221A601A6842F480325C
:101CA0001A60A2E642F004021A671A6F42F00102BB
:101CB0001A671DE723F0807315461360FEF76EFF69
:101CC000064604E0FEF76AFF801B022886D82B68D0
:101CD0009901F7D4D4E90732616A1343D4E90A20A1
:101CE00043EA8113216B52080D4C43EA0063013A29
:101CF00043EA017343EA02436B602B6843F080734D
:101D00002B60FEF74BFF054605E0FEF747FF401B43
:101D100002283FF663AF23689A01F6D51AE700BFA1
:101D20000038024078B15E4A136803F00F038B421B
:101D30000BD2136823F00F030B431360136803F0F7
:101D40000F038B4201D00120704703682DE9F04159
:101D50009D0714D55C0704D5524CA26842F4E052AA
:101D6000A2601A0704D54F4CA26842F46042A260F8
:101D70004C4C8568A26822F0F0022A43A260DF077B
:101D800004460D4621D54268464B012A1B6863D0A4
:101D9000022A78D0990728D5424941F288388B68C1
:101DA0000E4623F0030313438B60FEF7F7FE07464E
:101DB00004E0FEF7F3FEC01B404562D8B3686268DA
:101DC00003F00C03B3EB820FF3D1354A136803F031
:101DD0000F03AB420CD9136823F00F032B4313609E
:101DE000136803F00F03AB4202D00120BDE8F0817D
:101DF00023685A0706D52B49E0688A6822F4E05226
:101E000002438A601B0707D5264A2169936823F499
:101E1000604343EAC103936022498B6803F00C03DB
:101E2000042B1CD0082B2AD14A684B6802F03F02D1
:101E3000496813F4800329D11B48C1F38811A1FB21
:101E40000001FEF7FDF9174B5B68C3F30143013353
:101E50005B00B0FBF3F303E09E039DD4C5E7134B97
:101E6000104A0020124C92681249C2F30312A25C7D
:101E7000D3400B6003F066F90020BDE8F0810A4B07
:101E8000EEE70320B2E7980186D4AEE70748C1F336
:101E900088110023A1FB0001FEF7D2F9D3E700BFB0
:101EA000003C0240003802400024F40040787D01EC
:101EB00024EC00080C000020164908B58B6803F0DC
:101EC0000C03042B1BD0082B17D14A684B6802F077
:101ED0003F02496813F4800313D10F48C1F38811FE
:101EE000A1FB0001FEF7ACF90A4B5B68C3F30143A9
:101EF00001335B00B0FBF3F008BD074808BD07489D
:101F000008BD0648C1F388110023A1FB0001FEF7BC
:101F100097F9E9E7003802400024F40040787D0199
:101F2000044B054A9B680549C3F382230868D35CC8
:101F3000D84070470038024034EC00080C00002004
:101F4000044B054A9B680549C3F342330868D35CD8
:101F5000D84070470038024034EC00080C000020E4
:101F60000E4B0F2202609A6802F0030242609A68E8
:101F700002F0F00282609A6802F4E052C2609B684C
:101F8000DB0810B403F4E053054C036123685DF8EB
:101F9000044B03F00F030B60704700BF0038024092
:101FA000003C024003682DE9F04313F0010683B0C2
:101FB00004460BD09F4A916821F400019160466B62
:101FC00091683143B6FA86F67609916013F40025DC
:101FD00010D09849E56BD1F88C20B5F5801F22F41C
:101FE000401242EA0502C1F88C2000F0D481B5FA13
:101FF00085F56D09D90210D58E48216CD0F88C205A
:10200000B1F5800F22F4400242EA0102C0F88C20B0
:1020100000F0BF81002908BF012513F0807F18BFA1
:1020200001269A0600F16D81DA060CD5814AD2F8B4
:102030008C1021F08071C2F88C10D2F88C10A06B3B
:102040000143C2F88C105F0408D57A49606ED1F85C
:10205000902022F440320243C1F89020180408D5A1
:102060007449A06ED1F8902022F440220243C1F8B6
:102070009020D90308D56F49E06ED1F8902022F462
:1020800040120243C1F890209A0308D56949206F95
:10209000D1F8902022F440020243C1F890205F065C
:1020A00008D56449606CD1F8902022F00302024305
:1020B000C1F89020180608D55E49A06CD1F8902090
:1020C00022F00C020243C1F89020D90508D55949E5
:1020D000E06CD1F8902022F030020243C1F8902049
:1020E0009A0508D55349206DD1F8902022F0C002FE
:1020F0000243C1F890205F0508D54E49606DD1F8C4
:10210000902022F440720243C1F89020180508D5AF
:102110004849A06DD1F8902022F440620243C1F8F2
:102120009020D90408D54349E06DD1F8902022F4DD
:1021300040520243C1F890209A0408D53D49206ED0
:10214000D1F8902022F440420243C1F890205F026F
:1021500008D53849A06FD1F8902022F08062024360
:10216000C1F8902098020CD53249E06FD1F8902048
:10217000B0F1006F22F0006208BF01250243C1F8F0
:10218000902013F0080F18BF0125590308D52949DD
:10219000606FD1F8902022F040720243C1F8902085
:1021A0001A0209D52349D4F88000D1F8902022F0F2
:1021B00080520243C1F890205F0109D51D49D4F82F
:1021C0008400D1F8902022F000520243C1F8902000
:1021D000180109D51749D4F88800D1F88C2022F0CD
:1021E00000720243C1F88C20D9000BD4B3F1007FF8
:1021F00016D0F20714D4012D00F0D080002003B0D7
:10220000BDE8F0830B49B3F1007FD4F88C00D1F81E
:102210008C2022F0806242EA0002C1F88C20E8D1D2
:10222000044B1A681E4622F080621A60FEF7B6FC64
:10223000074606E000380240FEF7B0FCC01B6428E9
:102240005BD833681B01F7D42368DF0712D5626BB4
:1022500082B9D6F88420D6F8847002F440326068DF
:1022600007F07067A1683A4342EA801242EA0172BD
:10227000C6F884201E0300F10F81D80204D5226C19
:10228000B2F5800F00F00D81D90111D5A44E606820
:10229000D6F88420D6F8847002F07062216907F0C5
:1022A000E0473A4342EA801242EA0142C6F88420FB
:1022B0009A010DD5236962681B04D4E9021043EA30
:1022C0008213974A43EA006343EA0173C2F88430F9
:1022D000934B1A681E4642F080621A60FEF75EFC5D
:1022E000074604E0FEF75AFCC01B642805D8336893
:1022F0001B01F7D5012D81D150E0032003B0BDE8CB
:10230000F083874A874B116C1F4641F0805111645E
:10231000126C02F080520192019A1A6842F48072A3
:102320001A60FEF73BFC804605E0FEF737FCA0EBA9
:1023300008006428E1D83B68DB05F6D5784A236BB2
:10234000116F03F4407011F4407111D081420FD02D
:10235000116F176F21F4407147F480371767176FBB
:1023600027F4803717671167116FCF0700F1C3801B
:10237000B0F5407F00F0B18069498A6822F4F81214
:102380008A60674AC3F30B03116F0B43136723681B
:102390004AE6012641E6002501262BE6604B1A6835
:1023A0001D4622F080521A60FEF7F8FB064604E054
:1023B000FEF7F4FB801B64289FD82B689F00F7D49E
:1023C00023681D0300F19280D8021DD5226CDAB972
:1023D00053496569D1F88820D1F8886002F4403209
:1023E000A06906F0E046324342EA851242EA006202
:1023F000C1F88820D1F88C20A06A22F4F852013864
:1024000042EA0022C1F88C20990215D5E26FB2F1A0
:10241000006F11D142496569D1F88820D1F88860F0
:1024200002F07062206A06F0E046324342EA85120A
:1024300042EA0042C1F888201A0719D5384A65696E
:10244000D2F88810D2F8883001F07061E06903F4A6
:1024500040330B4343EA851343EA0073C2F88830E4
:10246000D2F88C30E16A23F440330B43C2F88C304D
:102470002B4B1A681C4642F080521A60FEF78EFB06
:10248000054605E0FEF78AFB401B64283FF635AFA2
:1024900023689B00F6D5B1E6E26BB2F5801F7FF4AE
:1024A000ECAE1F4E6068D6F88420D6F8847002F433
:1024B0004032E16807F0E0473A4342EA801242EADC
:1024C0000162C6F88420D6F88C10626A21F01F01E0
:1024D000013A0A43C6F88C20D6E6114812498268B0
:1024E000194022F4F8120A4382604AE7E26B002A9C
:1024F0003FF46EAF68E7174641F28838FEF74EFBAF
:10250000814606E0FEF74AFBA0EB090040453FF696
:10251000F4AE3B6F9907F5D5236B03F4407027E7C2
:102520000038024000700040FFFCFF0F00285DD023
:10253000002290F85D302DE9F0418262044603F0FC
:10254000FF02002B4DD0E76802232268B7F5E06F49
:1025500084F85D3027F40061136894BF4FF4805510
:10256000002523F04003B1F5E06F136035D1A66A72
:10257000236B2BB9B7F5E06F8CBF022301232363D4
:10258000A1684FF00008636820690B436169034349
:102590000B43D4E906010B43616A4FEA104C00F487
:1025A000007E0F43216A0CF0040C40460B43616B24
:1025B0000F4343EA0E034FF0010E47EA0C07334383
:1025C0003D4313605560D36923F40063D361C4F8BD
:1025D000608084F85DE0BDE8F08100231E46A362C0
:1025E000C6E780F85C2002F005FCACE701207047EC
:1025F000704700BF70B5056884B004466E68AB686C
:10260000C3F3801141B9DA0706D5720604D5C36C4D
:1026100004B0BDE870401847980707D5320605D5C5
:10262000236D204604B0BDE870401847C3F3401046
:1026300000283ED100294FD0B20638D594F85D105D
:1026400003295BD0216EC3F3002341F0040121660E
:102650000090E9680091A96800910099002B3FD192
:10266000236E23B36B680122B10723F0E0036B6094
:1026700084F85D204AD06B68A26D23F003036B6081
:102680004AB12B4B10461365FEF76CFE18B1236E52
:1026900043F040032366636D4BB1254A18461A6523
:1026A000FEF760FE18B1236E43F04003236604B0CA
:1026B00070BDB006FBD5E9B9C3F30023216E00203D
:1026C00041F0010121660290A9680291296821F078
:1026D000400129600299C1E7DB05E8D5B306E6D5DC
:1026E000236E002143F0080323660391AB68039334
:1026F000039BB5E794F85D1003290BD100230193E8
:10270000EB680193AB680193019BD0E72046FFF78C
:102710006FFFCCE7216E0020C3F3002341F00401DA
:1027200021660090E9680091A96800910099C5E7C9
:102730003527000808B50022836BA3F84620184609
:10274000DA87FFF755FF08BD002865D0F8B590F887
:102750003D30044603F0FF02002B3BD022680220EC
:10276000364E374FB2F1804FA2EB060684F83D009B
:10277000A2EB07071368B6FA86F6B7FA87F74FEAAF
:1027800056164FEA57172AD04EBB2E498A4245D0DB
:1027900001F580618A4241D001F580618A4242D0D0
:1027A000002F40D128498A421ED001F580618A421B
:1027B0001AD001F580618A4216D0A1F598318A427B
:1027C00012D001F580618A420ED001F580618A4203
:1027D0000ED109E080F83C2005F068F9BEE723F04F
:1027E0007005A06845EA000323F4407320690343A1
:1027F000A16923F08003E0680B4361681360D06235
:10280000916236B92FB901230020536184F83D301D
:10281000F8BD63691363F6E70120704723F0700386
:10282000A1680B43E0E7094923F07003A0688A42DE
:1028300043EA0003D8D0002FD6D1B3E7000001400F
:10284000000401400004004000400140000C004032
:102850000368094AD96841F00101D96099680A40C2
:10286000062A06D0B2F5803F03D01A6842F0010272
:102870001A600020704700BF07000100704700BFCA
:10288000002865D0F8B590F83D30044603F0FF020B
:10289000002B3BD022680220364E374FB2F1804FDA
:1028A000A2EB060684F83D00A2EB07071368B6FA10
:1028B00086F6B7FA87F74FEA56164FEA57172AD027
:1028C0004EBB2E498A4245D001F580618A4241D0F3
:1028D00001F580618A4242D0002F40D128498A42C6
:1028E0001ED001F580618A421AD001F580618A42CA
:1028F00016D0A1F598318A4212D001F580618A4242
:102900000ED001F580618A420ED109E080F83C20AA
:10291000FFF7B4FFBEE723F07005A06845EA0003A7
:1029200023F4407320690343A16923F08003E06826
:102930000B4361681360D062916236B92FB90123ED
:102940000020536184F83D30F8BD63691363F6E7F6
:102950000120704723F07003A1680B43E0E70949A9
:1029600023F07003A0688A4243EA0003D8D0002F06
:10297000D6D1B3E70000014000040140000400404C
:1029800000400140000C00400368012201F01F01DB
:10299000186A02FA01F120EA010010B418620F4C23
:1029A0001A6AA34241EA0201196212D00C4A934208
:1029B0000FD099680B4A0A40062A06D0B2F5803F2C
:1029C00003D01A6842F001021A6000205DF8044B3F
:1029D00070475A6C42F400425A64EAE70000014032
:1029E0000004014007000100034690F83C00012864
:1029F00000F03E810220F0B4012483F83D0083F80A
:102A00003C40142A43D8DFE812F01500420042008F
:102A100042007B00420042004200DA0042004200D5
:102A20004200AA0042004200420006014200420069
:102A300042004B001A68D1F808C0156A0F6825F0EB
:102A40000105AB4C1562106A5668956920F00200CA
:102A50002C40A84D40EA0C00AA4244EA070400F0CA
:102A6000158105F58065AA4200F010814D68566019
:102A700094615563106290690C6940F008009061A0
:102A8000906920F0040090619169214391610022D6
:102A90000121104683F83D1083F83C20F0BC7047BC
:102AA0001A688E68156A0F6825F48015924C1562B5
:102AB000106A556820F40010D2F854C040EA06505D
:102AC0008C4E0CEA0404B24244EA072400F0D2809F
:102AD00006F58066B24200F0CD804E6855605465C0
:102AE000D6651062506D0C6940F400605065506D01
:102AF00020F480605065516D41EA04215165C6E7BC
:102B00001A68D1F808C0156A0F6825F010057B4CCB
:102B10001562106A5668956920F020002C40754DAA
:102B200040EA0C10AA4244EA072400F0C38005F5ED
:102B30008065AA4200F0BE804D685660946195633E
:102B4000106290690C6940F400609061906920F413
:102B500080609061916941EA0421916197E71A6868
:102B60008E68156A0F6825F48055644C1562106AEA
:102B7000556820F40050D2F81CC040EA06305D4E83
:102B80000CEA0404B24244EA072400F08D8006F502
:102B90008066B24200F088804E685560D461166449
:102BA0001062D0690C6940F40060D061D06920F4F3
:102BB0008060D061D16941EA0421D16167E71A6878
:102BC000D1F808C0156A0F6825F48075484C156265
:102BD000106A5668D56920F400702C40454D40EAD3
:102BE0000C20AA4244EA070473D005F58065AA4286
:102BF0006FD04D685660D461D5631062D0690C699E
:102C000040F00800D061D06920F00400D061D169A3
:102C10002143D1613BE71A688E68156A0F6825F475
:102C20008035374C1562106A556820F40030D2F8B0
:102C300054C040EA06402F4E0CEA0404B24244EA73
:102C400007041DD006F58066B24219D04E68556063
:102C5000546596651062506D0C6940F0080050652F
:102C6000506D20F004005065516D214351650EE711
:102C70000220704725F480254E6945EA86252CE719
:102C800025F480354E6945EA0625DFE726F4407CC9
:102C900020F008008E69CF684D693843354320F035
:102CA000040045EA0C06E1E625F480454E6945EA54
:102CB000861571E726F4406C20F080008E69CF689D
:102CC0004D6940EA0710354320F040004CEA850684
:102CD00032E726F4405C20F400608E69CF684D69CD
:102CE00040EA0720354320F480604CEA051680E76F
:102CF0008CFFFEFF00000140FF8FFFFEFF8CFFFEF8
:102D00008FFFFEFF90F83C30012B5BD00246022083
:102D1000136870B482F83D00012598684C4C82F825
:102D20003C500440086840289C6076D04CD960280C
:102D30002FD058D970281BD0B0F5005F0FD1CC68C8
:102D4000D1E9015040EA0501986841EA042120F4E4
:102D50007F4001439960996841F480419960002364
:102D60000121184682F83D1082F83C3070BC704753
:102D7000D1E90150CC6840EA0501986841EA042194
:102D800020F47F4001439960996841F07701996090
:102D9000E5E71C6A4D6824F01004CE681C6298694F
:102DA000196A20F4704021F0A00140EA063041EA9F
:102DB000051198611962996821F0700141F067016D
:102DC0009960CCE702207047102804D03DD9202814
:102DD00001D03028C3D1996840F0070021F070017C
:102DE00008439860BBE75028B9D11D6A1C6A48683F
:102DF00025F00A0524F00104CE6828431C62996975
:102E000021F0F00141EA061199611862996821F0F8
:102E1000700141F057019960A1E71D6A1C6A48687A
:102E200025F00A0524F00104CE6828431C62996944
:102E300021F0F00141EA061199611862996821F0C8
:102E4000700141F04701996089E70028C3D086E707
:102E50008800FEFF704700BF704700BF704700BF8B
:102E6000704700BF03681A69910710B5044602D580
:102E7000DA68920768D41A69520702D5DA685007EF
:102E80004FD41A69110702D5DA68120737D41A69C4
:102E9000D00602D5DA68D1061ED41A69D20702D547
:102EA000DA68D00769D41A69110602D5DA68120601
:102EB0006BD41A69D00502D5DA6811066DD41A6987
:102EC000520602D5DA6850066FD41A69910602D507
:102ED000DA68920649D410BD6FF01001082220462E
:102EE0001961DB69227713F4407F6FD1FFF7B2FFDE
:102EF0002046FFF7B3FF002223682277CDE76FF06B
:102F00000801042220461961DB6922779B075AD108
:102F1000FFF7A0FF2046FFF7A1FF002223682277DA
:102F2000B5E76FF004010222204619619B69227700
:102F300013F4407F44D1FFF78DFF2046FFF78EFF4B
:102F40000022236822779CE76FF0020101221961B9
:102F50009B690277990730D1FFF77CFF2046FFF786
:102F60007DFF00222368227785E76FF0200220464C
:102F70001A61BDE8104000F0A5B86FF001022046CC
:102F80001A6101F087FE23688DE76FF0800220460A
:102F90001A6100F099F823688BE76FF4807220467D
:102FA0001A6100F093F8236889E76FF04002204629
:102FB0001A61FFF755FF236887E7FFF74DFFD0E75A
:102FC000FFF74AFFBCE7FFF747FFA6E7FFF744FF1D
:102FD00091E700BF90F83C30012B25D00268022316
:102FE00070B4134D80F83D30AA425368946816D0EF
:102FF00005F58065AA4212D00D6824F08004896826
:1030000023F0700301262B43214300255360916078
:1030100080F83D6080F83C50284670BC704723F42F
:1030200070034D682B43E7E702231846704700BF43
:103030000000014090F83C30012B3BD070B4D1E946
:103040000253D1E9002423F440730E692B434D69E8
:1030500023F4806323438C6A23F4006313438A6957
:1030600023F480533343066823F400532B43134D5A
:1030700023F48043AE4243EA040323F4702343EA7B
:10308000024309D00E4A964206D00022736480F8AB
:103090003C20104670BC70474A6A23F47003CC6928
:1030A00043EA02530A6A23F08073234323F0007338
:1030B0001343EAE702231846704700BF00000140AF
:1030C00000040140704700BF704700BF704700BF59
:1030D000F8B5466F202E3BD100293BD0B2FA82F7DB
:1030E0007F09002F36D190F87040012C30D0134664
:1030F000054621220124D0F868E0A0F85230E964A6
:10310000C767A0F85030426780F870400268BEF18F
:10311000000F12D0DFF854C028321348CEF840C058
:10312000DFF84CC0CEF83C007046CEF85070CEF8B8
:103130004CC0FEF789F878B92A6840230021136251
:103140000846936885F8701043F080039360F8BDDB
:103150000220F8BD0120F8BD102385F870702046CC
:10316000EB676E67F8BD00BF3932000869320008AE
:10317000C13200082DE9F041866F202E49D1002987
:103180004AD0B2FA82F77F09002F45D190F870300B
:10319000012B3ED0134601242222D0F86CE0C767F1
:1031A00005464165A0F8583080F870408267D0F835
:1031B00000C0BEF1000F15D01C480A46DFF8708031
:1031C0000CF12401DFF86CC0CEF83C007046CEF85C
:1031D0005070CEF84080CEF84CC0FEF735F8F0B90C
:1031E000D5F800C0DCF80030002043F4807385F887
:1031F0007000CCF80030DCF8083043F00103CCF864
:103200000830DCF8083043F04003CCF80830BDE863
:10321000F0810220BDE8F0810120BDE8F08110239B
:1032200085F870702046EB676E67F3E7753200082B
:10323000B1320008C132000808B5C369806BB3F52C
:10324000807F0CD003680022A0F852209A6822F0F8
:1032500080029A601A6842F040021A6008BD06F0C7
:1032600007FB08BD704700BF08B5806BFFF7FAFF8A
:1032700008BD00BF08B5C369806BB3F5807F11D06E
:10328000036800222021A0F85A201A6822F48072D4
:103290001A609A6822F001029A609A6822F040024D
:1032A0009A60816706F0E2FA08BD00BF704700BF70
:1032B00008B5806BFFF7FAFF08BD00BF704700BF7D
:1032C000836B1A6810B55C6F986F9168090601D519
:1032D000212C1BD09168490601D5222807D0DA6F2E
:1032E000184642F01002DA67FFF7E8FF10BD002031
:1032F0002024A3F85A00116821F49071116091689C
:1033000021F00101916018669C67E8E70021202404
:10331000A3F85210116821F0C00111605C67D9E771
:103320000368DA6970B516071D680446996847D0C6
:1033300011F001014BD0D00707D5EE0505D50120CE
:103340001862E06F40F00100E06790075DD450071D
:1033500001D5002963D1160703D5A80666D4002934
:1033600064D1E16F002931D0960601D5A80668D452
:10337000E56F9968490602D415F0080568D01A6807
:103380002020002122F490721A609A6822F0010233
:103390009A60A0679A68216652064ED59A68E16ED7
:1033A00022F040029A60002947D02C4B08460B655A
:1033B000FDF7D8FF50B1E06EBDE87040036D1847CF
:1033C000910607D5AE0605D5036EDBB970BD15F4C1
:1033D000907FB0D116060FD45106F7D56A06F5D501
:1033E0001A6820250021204622F040021A606567F5
:1033F000616606F03DFA70BD2806EDD5636E002BC0
:10340000E4D02046BDE8704018470029A3D0022030
:1034100056071862E06F40F00400E0679BD5042077
:103420001862E06F40F00200E06794E7082119623B
:10343000E16F41F00801E16793E72046FFF73EFFA7
:1034400070BD226E002A93D02046904723688FE7F4
:103450002046FFF733FFE56770BD00BF6134000809
:1034600008B50022836BA3F85A201846A3F852200F
:10347000FFF724FF08BD00BF436ADA0710B406D582
:103480000168846A4A6822F4003222434A609C0739
:1034900006D50168C46A4A6822F4803222434A6031
:1034A000590706D50168046B4A6822F4802222433A
:1034B0004A601A0706D50168446B4A6822F4004244
:1034C00022434A60DC0606D50168846B8A6822F4D0
:1034D000805222438A60990606D50168C46B8A68C7
:1034E00022F4005222438A605A060AD50168046C0D
:1034F0004A68B4F5801F22F4801242EA04024A604E
:103500000BD01B0606D50268816C536823F4002398
:103510000B4353605DF8044B70474A68446C22F4D7
:10352000C00222434A60ECE700284FD0436F70B5D9
:103530000446002B45D02368242120696167A268D6
:1035400019680243606921F00101BF4D0243E0693F
:10355000196019680243E6680D40A1692A43256A8B
:103560001A6041EA05025968B84D21F44051AB4256
:1035700041EA06015960996821F4306142EA01028A
:103580009A6025D0B24A934244D0B24A934200F0A6
:10359000D580B14A934247D0B04A934200F0E380CD
:1035A000AF4A934200F06A81AE4A934200F07981BB
:1035B000AD4A934200F0378100230120C4E918335B
:1035C00070BD80F8703004F0A1FBB4E701207047B3
:1035D000A64BA74AD3F8903003F00303D35CB0F5B1
:1035E000004F31D0082BE7D801A252F823F000BFDA
:1035F0002B3700088536000857370008B935000812
:103600007D370008B9350008B9350008B93500081C
:103610008F37000802F5FA32954BD2F8902002F06D
:103620000C0213441B79DAE7904BD3F8903003F087
:10363000C003402B00F09F8071D9802B00F0888060
:10364000C02B00F0B980B7E7082BB5D801A252F81B
:1036500023F000BF21380008F737000811380008B0
:10366000B93500080B380008B9350008B93500082D
:10367000B9350008BF370008002B9DD1B0F5004FC9
:1036800000F0B980FEF75CFC636800EB5302B2FB0C
:10369000F3F292B2A2F110014FF6EF7399428BD878
:1036A00023680021DA60C4E91811626A002A76D121
:1036B0005A68002122F490425A609A6822F02A0245
:1036C0009A601A6842F001021A60E167FDF766FA33
:1036D000236806461A68120707D42022002362676F
:1036E0001846A26784F8703070BDDD6915F40015C6
:1036F000F3D1FDF753FA801B2368B0F1007FF4D3B8
:103700001A682021032022F4D0721A609A6822F0ED
:1037100001029A60616784F87050A16770BD002B48
:103720007FF44AAFB0F5004F7AD0FEF7F9FB63683B
:1037300000EB5302B2FBF3F292B2ABE74B4BD3F880
:10374000903003F03003102B15D0E8D9202B4FD147
:10375000B0F5004F5CD06368464A02EB5302B2FBFF
:10376000F3F292B296E7414BD3F8903003F44073F2
:10377000B3F5807F18D1B0F5004F46D0FEF79CFB23
:10378000636800EB5302B2FBF3F292B282E7636824
:103790005A0802F50042B2FBF3F292B27AE72046F1
:1037A000FFF76AFE236883E7B9D9B3F5007FCFD06E
:1037B000B3F5407F7FF400AFB0F5004FE7D162680A
:1037C000530803F58033B3FBF2F39BB2A3F110016E
:1037D0004FF6EF7291423FF6EFAE23F00F01C3F3C5
:1037E0004202002023680A43DA60C4E918005CE75B
:1037F000302BE1D0E0E6FEF7A3FB6268530803EB51
:103800004003B3FBF2F39BB2E0E7FEF755FBF4E7AE
:103810006268194B03EB5203B3FBF2F39BB2D5E79B
:10382000FEF77EFBE9E7114BD3F8903003F44043F9
:10383000B3F5804F9FD07FF672AFB3F5004F87D0BE
:10384000B3F5404FB8D0B7E6F369FFEF0010014081
:103850000044004000480040004C00400050004040
:103860000014014000780040007C00400038024015
:10387000D8EB00080024F4000048E801134BD3F80B
:10388000903003F44063B3F5806F3FF474AF7FF67C
:10389000F3AEB3F5006F3FF45BAFB3F5406F8BD081
:1038A0008AE60A4BD3F8903003F44053B3F5805FB7
:1038B0003FF461AF7FF633AFB3F5005F3FF448AF3D
:1038C000B3F5405F3FF478AF76E600BF00380240C2
:1038D00008B500F0B7F9002008BD00BFF0B5B0F999
:1038E000084085B00B460269842CD0E90017D0E966
:1038F000055614BF0334002438460094CDE9015620
:1039000000F070F905B0F0BD08B500F09FFB01288C
:1039100003D0BDE8084000F085BC08BD00F10803F5
:103920004FF0FF310022816002604360C0E9033341
:10393000704700BF00230361704700BF43680268FF
:1039400010B49C680132C1E901349C6861609960DF
:103950005DF8044B08610260704700BF30B40D6829
:103960006B1C11D000F1080200E01A4653681C6875
:10397000AC42FAD904684B60013499608A605160A6
:103980000861046030BC704702695368F2E700BF09
:103990000369D0E9012110B45C68916081688442B8
:1039A0005DF8044B4A601A6808BF59600021013A6B
:1039B00001611A601868704708B5104C4FF08056C6
:1039C0000F4D0EE000F0BEFB2369D8680430FFF70E
:1039D000DFFFA369013BA3612368013B236000F083
:1039E000D7FB2368002BEDD1E369012BF9D92E60B9
:1039F000BFF34F8FBFF36F8FF3E700BF10020020BC
:103A000004ED00E0F8B51F4C06460F46D4F8A85068
:103A1000D4F8AC000430FFF7BBFF50B9D4F8AC10B9
:103A20000122D4F8B030C96A8A4023EA0203C4F8FC
:103A3000B030721C01D1FB071BD4AD19D4F8AC30E7
:103A40005D600DD2D4F8CC00D4F8AC100431FFF78F
:103A500085FFD4F8D030AB4201D9C4F8D050F8BDBE
:103A6000D4F8C800D4F8AC10BDE8F8400431FFF732
:103A700075BFD4F8AC1004480431BDE8F840FFF736
:103A80005DBF00BF10020020C40200202DE9F047F6
:103A900002F1804680469A46089D013E4B1E0F313A
:103AA000DDE9092402EB860604F13400226326F0E6
:103AB000070613F8012F00F8012B1A780AB18B4280
:103AC000F7D1062D4FF0000904F1040728BF0625A1
:103AD00084F843903846C4F84890E5626564C5F1BF
:103AE0000705FFF727FF04F11800FFF723FF5246F1
:103AF0004146C4F84C90A561304684F8509024614A
:103B0000646200F0F5FA206000F01CFB324B9A6909
:103B10001D4603F11C0801329A61D3F8AC603EBB2C
:103B2000C3F8AC409B69012B2DD14FF0140909FB60
:103B300006800136FFF7F2FE072EF8D1274E06F178
:103B400014093046FFF7EAFE4846FFF7E7FE06F1A4
:103B50002800FFF7E3FEA6F1D000FFF7DFFEA6F195
:103B60002000FFF7DBFEC5F8CC60C5F8C8900AE07E
:103B7000D3F810313BB9D5F8AC30E26ADB6A9A422F
:103B800001D3C5F8AC40E26A01231420D5F8B06037
:103B90009340394600FB0280D5F8142133430132AB
:103BA000C5F8B030C5F81421FFF7C8FE00F0F0FAF0
:103BB000D5F810316BB1D5F8AC20E36AD26A9A42DD
:103BC00007D2074B4FF080521A60BFF34F8FBFF3FD
:103BD0006F8F2046BDE8F08710020020E40200202D
:103BE00004ED00E030B482B0DDE90554DDB17CB114
:103BF00054240194019C542C20D04FF0500372B6F1
:103C000083F31188BFF36F8FBFF34F8F62B6FEE768
:103C10004FF0500372B683F31188BFF36F8FBFF379
:103C20004F8F62B6FEE74FF0500372B683F31188F0
:103C3000BFF36F8FBFF34F8F62B6FEE702B030BCA9
:103C4000FFF724BF10B588B0002405A906AA04A870
:103C5000CDE9044400F066FDDDE90413E3B181B170
:103C60005420069A07900798542820D04FF050030C
:103C700072B683F31188BFF36F8FBFF34F8F62B6B5
:103C8000FEE74FF0500372B683F31188BFF36F8FD6
:103C9000BFF34F8F62B6FEE74FF0500372B683F367
:103CA0001188BFF36F8FBFF34F8F62B6FEE7CDE988
:103CB0000131009423460E490E48FFF7E7FEA8B1F4
:103CC0004FF0500372B683F31188BFF36F8FBFF3C9
:103CD0004F8F62B6084B4FF0FF310122C3F8D0106E
:103CE000C3F81021C3F8A84000F0D2FA08B010BD04
:103CF00000F00008B939000810020020014BD3F889
:103D0000A8007047100200202DE9F047484CD4F875
:103D10001831002B4DD1D4F8A8600136C4F8A86042
:103D2000002E54D0D4F8D0300025B34235D84FF00F
:103D30000109DFF8008127E0D4F8CC30DB68DF68C8
:103D40007B6807F1040A9E42504665D3FFF720FEC8
:103D5000BB6A07F118000BB1FFF71AFEF86A51466B
:103D6000D4F8B02009FA00F300EB8000134308EB0D
:103D70008000C4F8B030FFF7E1FDD4F8AC30FA6A47
:103D8000DB6A9A4228BF0125D4F8CC301B68002B8F
:103D9000D2D14FF0FF33C4F8D030D4F8AC30DB6A66
:103DA00003EB830304EB8303DB69022B28BF0125AC
:103DB00005E0D4F8243100250133C4F82431D4F8C7
:103DC0001C31002B0CBF28460120BDE8F087D4F839
:103DD000CC301B6853B14FF0500372B683F3118897
:103DE000BFF36F8FBFF34F8F62B6FEE7D4F8CC30CE
:103DF000D4F8C820C4F8CC20C4F8C830D4F8203196
:103E00000133C4F82031D4F8CC301B683BB94FF0F3
:103E1000FF33C4F8D03085E7C4F8D030BDE7D4F81C
:103E2000CC30DB68DB685B68C4F8D0307AE700BF71
:103E3000100200202C0200202DE9F0413B4CD4F868
:103E4000183153B94FF0500372B683F31188BFF3A2
:103E50006F8FBFF34F8F62B6FEE700F073F9D4F8AF
:103E60001831013BC4F81831D4F818515DBBA3696F
:103E70004BB3012604F11C07D4F8FC304BB3D4F843
:103E80000831DD6805F1040805F11800FFF780FD31
:103E90004046FFF77DFDE86AD4F8B020414606FAB7
:103EA00000F300EB8000134307EB8000C4F8B03050
:103EB000FFF744FDD4F8AC30EA6ADB6A9A42DBD300
:103EC000C4F81C61D8E7002400F062F92046BDE880
:103ED000F0813DB1D4F8CC301B68F3B94FF0FF331B
:103EE000C4F8D030D4F824514DB10126FFF70CFFAF
:103EF00008B1C4F81C61013DF8D1C4F82451D4F8CC
:103F00001C31002BDFD00A4B4FF080521A60BFF3F8
:103F10004F8FBFF36F8F0124D6E7D4F8CC30DB6826
:103F2000DB685B68C4F8D030DCE700BF100200201B
:103F300004ED00E0D8B151B94FF0500372B683F3ED
:103F40001188BFF36F8FBFF34F8F62B6FEE710B5D6
:103F5000204CD4F81821AAB14FF0500372B683F365
:103F60001188BFF36F8FBFF34F8F62B6FEE74FF03C
:103F7000500372B683F31188BFF36F8FBFF34F8F77
:103F800062B6FEE70246D4F818010B46013011680C
:103F9000C4F81801CB18D4F8A8002CBF01240024C1
:103FA0008142136012D92CB1984203D2181A002111
:103FB000FFF728FDFFF740FF38B9074B4FF080525D
:103FC0001A60BFF34F8FBFF36F8F10BD002CEBD083
:103FD000ECE700BF1002002004ED00E01A4AD2F81E
:103FE0001831E3B910B4C2F81C31D2F8B030B3FACA
:103FF00083F3DBB2C3F11F0303EB83018900541881
:10400000E06980B1206A114440682431884220620E
:1040100014D0C3685DF8044BC2F8AC30704701237C
:10402000C2F81C3170474FF0500372B683F3118809
:10403000BFF36F8FBFF34F8F62B6FEE71421406866
:1040400001FB03231862E4E710020020064BD3F8BB
:10405000102132B1D3F81831002B0CBF0220002000
:1040600070470120704700BF10020020104B82B043
:1040700000221B68019201330AD04FF0500372B640
:1040800083F31188BFF36F8FBFF34F8F62B6FEE7E4
:104090004FF0500372B683F31188BFF36F8FBFF3F5
:1040A0004F8F62B6019B002BFCD002B0704700BF5F
:1040B0000800002008480068006880F308884FF076
:1040C000000080F3148862B661B6BFF34F8FBFF370
:1040D0006F8F00DF00BF000008ED00E0DFF80C008C
:1040E000016841F4700101607047000088ED00E054
:1040F00070B403464FF08076084D6FF0020421F053
:10410000010140F8202C4438C16343F8046C43F8A3
:104110000C5C43F8244C70BC704700BF6D40000835
:10412000074B19680868B0E8F04F80F30988BFF3BF
:104130006F8F4FF0000080F311887047AFF300805D
:10414000BC0200204FF0500372B683F31188BFF316
:104150006F8FBFF34F8F62B60B4A13680133012B89
:10416000136000D07047094B1B6813F0FF0FF9D0A4
:104170004FF0500372B683F31188BFF36F8FBFF314
:104180004F8F62B6FEE700BF0800002004ED00E09C
:10419000094A136853B94FF0500372B683F311887C
:1041A000BFF36F8FBFF34F8F62B6FEE7013B136023
:1041B0000BB983F31188704708000020000000004D
:1041C000EFF30980BFF36F8F154B1A681EF0100FC5
:1041D00008BF20ED108A20E9F04F10602DE909009A
:1041E0004FF0500072B680F31188BFF34F8FBFF3CA
:1041F0006F8F62B6FFF7F2FE4FF0000080F3118878
:1042000009BC19680868B0E8F04F1EF0100F08BF2D
:10421000B0EC108A80F30988BFF36F8F704700BF3E
:10422000BC02002008B54FF0500372B683F311882A
:10423000BFF36F8FBFF34F8F62B6FFF765FD18B105
:10424000034B4FF080521A60002383F3118808BD9E
:1042500004ED00E010B40023084A094C0721094886
:1042600013602360084C03680848A4FB03435DF80F
:10427000044B9B09013B03601160704710E000E0B4
:1042800018E000E00C000020D34D621014E000E0C4
:104290002C4BFF202C4930B51A7883B00724D2B2BA
:1042A0004C60019218701B78DBB28DF803309DF8DA
:1042B00003309DF8032003F0500310060B7010D557
:1042C000062300E003469DF80320581E5200D2B298
:1042D0008DF803209DF803201206F3D4032B4B60C6
:1042E0000AD04FF0500372B683F31188BFF36F8F7B
:1042F000BFF34F8F62B6FEE701981B02134A0024FA
:10430000104DC0B203F4E063287010684B6040F4B5
:1043100070001060136843F070431360FFF79AFF5A
:104320000B4B1C60FFF7DAFE0A4A136843F0404368
:104330001360FFF7BFFEFFF751FEFFF797FE204621
:1043400003B030BD00E400E03803002020ED00E0C1
:104350000800002034EF00E030B5734B4FF480319B
:10436000724D0022724885B010249A6098621846F7
:10437000DC61009283F82020DA62DA600392C3E9FC
:1043800000510121CDE901221961996183F83010B2
:104390005961FCF709FC002840F0C2800123022289
:1043A000694661480093CDE90123FCF7A5FD00288B
:1043B00040F0B3800222032369465B48CDE9002325
:1043C000FCF79AFD002840F0A580032204236946EB
:1043D0005548CDE90023FCF78FFD002840F0978079
:1043E0000422052369465048CDE90023FCF784FDEB
:1043F000002840F089800522062369464A48CDE915
:104400000023FCF779FD00287BD1062207236946AB
:104410004548CDE90023FCF76FFD00286ED1072247
:10442000082369464048CDE90023FCF765FD0028D4
:1044300061D10822092369463B48CDE90023FCF7F6
:104440005BFD002854D109220A2369463648CDE98C
:104450000023FCF751FD002847D10A220B236946AF
:104460003148CDE90023FCF747FD00283AD10B2263
:104470000C2369462C48CDE90023FCF73DFD70BBB9
:104480000C220D2369462848CDE90023FCF734FDB2
:1044900010BB0D220E2369462348CDE90023FCF70B
:1044A0002BFDB0B900220F2369461F48CDE9002338
:1044B000FCF722FD50B9102369461B480193FCF715
:1044C0001BFD08B100F0F0FB05B030BD00F0ECFBC7
:1044D000F1E700F0E9FBE5E700F0E6FBD9E700F0E3
:1044E000E3FBCDE700F0E0FBC1E700F0DDFBB4E764
:1044F00000F0DAFBA7E700F0D7FB9AE700F0D4FB67
:104500008DE700F0D1FB80E700F0CEFB73E700F011
:10451000CBFB65E700F0C8FB57E700F0C5FB49E7B8
:1045200000F0C2FB3AE700BF4C0C00200020014025
:104530000100000F344B0268F0B59A428BB04FF087
:104540000004CDE90544CDE90744099401D00BB03E
:10455000F0BD03F58C3306463F2003275A6C05A9AE
:104560002A4D42F480725A645A6C02F480720192AD
:10457000019A1A6B42F004021A631A6B02F00402E9
:104580000292029A1A6B42F001021A631A6B02F04D
:1045900001020392039A1A6B42F002021A631B6B28
:1045A000059003F002031A4806970493049BFCF756
:1045B000C3FFFF2305A917480593CDE90674FCF74F
:1045C000BBFF05A914480794CDE90577FCF7B4FFB4
:1045D000124F4FF480614FF400624FF400532846AD
:1045E0006C606C622F60AB61C5E90244C5E90744A9
:1045F000C5E90412FCF78CFD18B9B563AE630BB0C6
:10460000F0BD00F051FBF8E700200140940C0020C1
:1046100000080240000002400004024070640240B2
:104620002F4B002205210B2010B51C6B82B044F4E7
:1046300000141C631C6B04F400140094009C1C6B9D
:1046400044F480041C631B6B03F480030193019BFF
:10465000FCF71AFD0B20FCF74DFD002205210C2074
:10466000FCF712FD0C20FCF745FD002205210D2072
:10467000FCF70AFD0D20FCF73DFD002205210F206F
:10468000FCF702FD0F20FCF735FD0022052110206C
:10469000FCF7FAFC1020FCF72DFD002205212F204D
:1046A000FCF7F2FC2F20FCF725FD00220521382025
:1046B000FCF7EAFC3820FCF71DFD002205213B2019
:1046C000FCF7E2FC3B20FCF715FD002205213C2015
:1046D000FCF7DAFC3C2002B0BDE81040FCF70ABD54
:1046E0000038024010B582B0FFF708FB02AC44F876
:1046F000040D05F0C3FA01212046FFF71BFCF8E783
:1047000010B582B0FFF7FAFA02AC44F8040D03F0DA
:10471000A5FF05F01FF905F09BFA01212046FFF7E0
:1047200009FCF4E7044B30B4802403F15405036022
:104730000D60146030BC70474003002070B5104C11
:104740008EB026466D461C340FCE0FC596E8070086
:1047500085E8070000216846FFF7C0F8094B07AD60
:1047600018600FCC0FC594E8070085E8070000210A
:1047700007A8FFF7B3F8044B18600EB070BD00BF78
:10478000ECEB0008F42C00204C2D0020704700BFFB
:104790002DE9F04F854B8DB000240125844E49F260
:1047A0009B5108942246079430460B94DFF810B2D0
:1047B000DFF81092DFF810A2DFF81082CDE909448B
:1047C0001F6B47F010071F631F6B07F01007009760
:1047D000009F1F6B47F004071F631F6B07F0040760
:1047E0000197019F1F6B47F020071F631F6B07F0A6
:1047F00020070297029F1F6B2F431F631F6B2F40E1
:104800000397039F1F6B47F002071F631F6B07F09F
:1048100002070497049F1F6B47F040071F631F6B3D
:1048200007F040070597059F1F6B47F008071F63B8
:1048300002271B6B03F008030693069BFCF79AFF05
:10484000224658464FF40051FCF794FF2246484652
:1048500044F23C41FCF78EFF224650464FF44C5147
:10486000FCF788FF2246404640F60241FCF782FFF3
:10487000224650484FF48071FCF77CFF49F29B536D
:10488000304607A9079307260895CDE90944FCF7A8
:1048900053FE4FF40053584607A907930A94CDE9F5
:1048A0000854FCF749FE44F23C4307A948460793E5
:1048B0000A94CDE90854FCF73FFE4FF438434846CC
:1048C00007A909F580690793CDE90844FCF734FE90
:1048D0003F22394B07A948460997CDE90723FCF742
:1048E0002BFE4FF44C53504607A907930A94CDE989
:1048F0000854FCF721FE40F6024307A940460793FF
:104900000A94CDE90854FCF717FEC0222B4B484609
:1049100007A90997CDE90723FCF70EFE4FF4807332
:1049200007A9244807930A94CDE90854FCF704FE2C
:104930000323602207A940460792CDE90A36CDE954
:104940000874FCF7F9FD224605210620FCF79CFBC4
:104950000620FCF7CFFB224630460521FCF794FBEE
:104960003046FCF7C7FB224605210820FCF78CFBEC
:104970000820FCF7BFFB224605210920FCF784FB39
:104980000920FCF7B7FB224605210A20FCF77CFB37
:104990000A20FCF7AFFB224605211720FCF774FB29
:1049A0001720FCF7A7FB0DB0BDE8F08F00380240E0
:1049B0000010024000000240000011100000211011
:1049C000000802400014024000040240000C0240B3
:1049D00038B5144B00220121134D144C18461A62AD
:1049E000C3E90054C3E90221C3E90422C3E9062252
:1049F000FCF7D0FE98B900210A48FCF71FFF58B910
:104A000000210848FCF744FF08B100F04DF90220EE
:104A1000BDE83840FCF766BF00F046F9F0E700F06B
:104A200043F9E8E7A44D0020005800401709800032
:104A3000264B0268F0B59A4289B04FF00004CDE9E8
:104A40000344CDE90544079401D009B0F0BD204FDF
:104A50000322064612203B6B03A91E4D43F02003A0
:104A60003B633B6B039203F0200306920122049008
:104A7000019304230198184805920793FCF75CFD05
:104A80003B6C4FF06060EC60402143F480034FF4D6
:104A900080623B643B6C6C6103F480036C62686011
:104AA000284602934FF48033029FA9602A612B624B
:104AB000C5E90644094C2C60FCF72AFB18B9B5631C
:104AC000AE6309B0F0BD00F0EFF8F8E70058004021
:104AD00000380240F04D002000140240B86002404F
:104AE00070B50024B8B030220225214608A805F090
:104AF00034FA214614A890220294CDE90344CDE96A
:104B0000054405F02AFA204B012010211A6C42F0CE
:104B100080521A641A6CA3F5E43302F080520092BA
:104B2000009A1A6842F440421A6008221B680A90F0
:104B300007A803F440430B910E940193D823019EE0
:104B40000F2607950D95CDE90F23CDE91155FCF7FB
:104B50001BFFFCF7DDFE4FF4A0524FF480530721FA
:104B600002A8039504940296CDE90523FDF7DAF82F
:104B700048F2403314A825942E941493CDE9274489
:104B8000FDF710FA38B070BD0038024080B5BFF3B1
:104B90004F8FBFF36F8F3D4A0021C2F85012BFF311
:104BA0004F8FBFF36F8F536943F400335361BFF3EB
:104BB0004F8FBFF36F8FC2F88410BFF34F8FD2F8BF
:104BC000803043F6E07CC3F3C906C3F34E33B70726
:104BD0005C0104EA0C053846314645EA0003013918
:104BE00000F14040C2F860324B1CF6D1203C14F179
:104BF000200FEED1BFF34F8F536943F480335361DD
:104C0000BFF34F8FBFF36F8FFBF7B0FFFFF768FF66
:104C1000FFF7BEFDFFF704FD03F05AF803F03AF882
:104C200000F0A2FB00F080FF01F05AF901F05AFBFE
:104C300001F044FD02F09EF801F0FCFE01F02CFBB7
:104C4000FFF78AFB00F094FD02F090FD02F0EEFB0E
:104C500002F030FA03F000F800F052F800F07AF8B1
:104C600000F0A0F800F022F8FFF7B2FEFFF78EFD8B
:104C700004F014FD03F0F2FC03F054FF04F0B0FF65
:104C8000FFF75CFDFEF724FEFEE700BF00ED00E04D
:104C900003F058BC0268034B9A4200D07047FBF700
:104CA00071BF00BF000C0040704700BF38B54FF423
:104CB0007061114B4FF48274104D022201201D606F
:104CC0004FF400755C601824D96007211A61002236
:104CD00058611846D9629A609A62C3E90654C3E9DA
:104CE0000822C3E90C22FDF721FC00B938BDBDE85C
:104CF0003840FFF7D9BF00BFDC4F00200030014033
:104D000038B54FF47061114B4FF48274104D02228C
:104D100001201D604FF400755C601024D9600721EC
:104D20001A61002258611846D9629A609A62C3E9F2
:104D30000654C3E90822C3E90C22FDF7F7FB00B9CA
:104D400038BDBDE83840FFF7AFBF00BFB44E00200C
:104D5000003C004038B54FF48271104B104C4FF4BA
:104D6000E06201204FF400751C600824596007219F
:104D7000DA60002258611846D9629A601A619A6214
:104D8000C3E90654C3E90822C3E90C22FDF7CEFBB0
:104D900000B938BDBDE83840FFF786BF784F002026
:104DA0000034014038B54FF48271104B104C4FF471
:104DB00070624FF4007010251C60072459600821B0
:104DC000DA60002298611846DD61DC6259639A60FE
:104DD0009A621A63C3E90422C3E90822FDF7A6FB1D
:104DE00000B938BDBDE83840FFF75EBF504E002027
:104DF00000540140B14A03682DE9F043934291B059
:104E00004FF000040546CDE90B44CDE90D440F9465
:104E100038D0AB4A934200F0B680AA4A934200F0E1
:104E20002381A94A934202D011B0BDE8F083A74B79
:104E3000022005254FF4E0475A6C03260BA942F4E3
:104E400000125A645A6C02F400120992099A1A6B01
:104E500042F040021A631B6B0C9003F040039C4825
:104E60000B970A930A9BCDE90E65FCF765FB22467A
:104E700029465620FCF708F95620FCF73BF911B0FB
:104E8000BDE8F083914B802005274FF002095A6C52
:104E90004FF003080BA98F4E42F480525A645A6CAB
:104EA00002F480520192019A1A6B42F008021A63CE
:104EB0001A6B02F008020292029A1A6B42F0400248
:104EC0001A631B6B0B9003F040038348CDF83090BE
:104ED0000393039BCDE90E87FCF72EFB4FF4206371
:104EE0000BA97B480B93CDF830900D94CDE90E873C
:104EF000FCF722FB4FF48067DFF800E24FF0C06C54
:104F00004FF400614FF400524FF480333046B460E8
:104F1000F460F4617462B2613362C6E900ECC6E920
:104F20000471FCF7F5F8002840F0C1806B4C4FF09D
:104F3000C0626B4940234FF48060AE65B5634FF4A7
:104F4000006621604FF4005162604FF48032A3602C
:104F50000023206120462262E360E3616362C4E9CA
:104F60000561FCF7D5F808B1FFF79EFE0022052188
:104F70006C652320A563FCF787F82320FCF7BAF8BB
:104F800011B0BDE8F083514B022604214FF0070C0D
:104F90001A6C0327534842F400421A641A6C02F454
:104FA00000420492049A1A6B32431A631A6B32401D
:104FB0000592059A1A6B0A431A631B6B0B910BA996
:104FC00003F00403CDF83CC00C9606930E97069BA5
:104FD000FCF7B2FA4FF4406206230BA942480C9644
:104FE000424E0B920F93CDE90D47FCF7A5FA4FF413
:104FF0008067DFF80CC14FF400614FF400524FF4AA
:1050000000333046F460F4617462C6F800C0B261E7
:105010003362C6E90144C6E90471FCF779F8002857
:1050200048D1334C4023334A4FF480604FF400673B
:105030004FF4005122604FF40032A360002320613E
:105040002046AE65B56322626360E360E36163623C
:10505000C4E90571FCF75CF808B1FFF725FE6C6543
:10506000A56311B0BDE8F083184B46F20400022698
:105070000BA95A6C0325052442F400525A645A6C59
:1050800002F400520792079A1A6B42F010021A6358
:105090001B6B0B9003F0100317480C960893089BAA
:1050A000CDE90E54FCF748FA11B0BDE8F083FFF7E4
:1050B000FBFD3BE7FFF7F8FDB3E700BF0030014021
:1050C000003C0040003401400054014000380240E0
:1050D0000018024040500020000C0240A050002068
:1050E00058640240000402400008024000510020C1
:1050F000184F0020886002400010024010640240F7
:10510000106002400E4B00220F216FF0010010B41E
:105110001C6C83B044F080541C641C6C04F08054FC
:105120000094009C5C6C44F480445C645B6C03F40D
:1051300080430193019B03B05DF8044BFBF7A4BFD0
:105140000038024070B5014688B000223220FBF7DB
:105150009BFF3220FBF7CEFF154B01A903A81A6C69
:10516000144E42F00802144C144D1A641B6C03F0E8
:1051700008030293029BFCF7F3FEFCF7D1FE00222A
:10518000430040F2E7312560A6FB030320469B0C59
:10519000013BC4E90312C4E90132FDF7D5FA10B1AD
:1051A000012008B070BD2046FDF752FB08B070BD6D
:1051B0000038024083DE1B4360510020000C004099
:1051C000704700BFFEE700BFFEE700BFFEE700BF7D
:1051D000FEE700BF704700BF0120FCF7CFBA00BF59
:1051E0000220FCF7CBBA00BF0420FCF7C7BA00BF0F
:1051F0000820FCF7C3BA00BF1020FCF7BFBA00BFFD
:105200000148FCF7C3B800BF005100200148FCF77B
:10521000BDB800BF005500200148FCF7B7B800BF7B
:10522000A05400200148FCF7B1B800BFE0550020B1
:105230000148FCF7ABB800BF184F002008B520208C
:10524000FCF79CFA4020FCF799FA8020BDE8084062
:10525000FCF794BA08B50448FDF704FE0348BDE81E
:105260000840FDF7FFBD00BF205300202052002062
:105270000148FDF7BFB900BFDC4F002010B5064C58
:1052800004F03AFB2046FEF74BF82268136843F01F
:105290002003136010BD00BF4056002010B5044C21
:1052A000204604F06DFA2046BDE81040FEF738B8FD
:1052B000605500200148FCF769B800BFF04D0020A0
:1052C0000148FDF7CFBD00BF6051002010B5044C70
:1052D000204604F055FA2046BDE81040FEF720B8FD
:1052E000C05600200148FCF751B800BF40500020D4
:1052F0000148FCF74BB800BFA05000200148FCF764
:1053000045B800BF940C00200148FDF773B900BFF9
:10531000504E0020FEF7F8BA0F4A104BD2F8880022
:105320000F4940F4700070B4C2F888000024186877
:105330004FF000650B4E40F0010018609C6018684B
:10534000014019605E60196821F480211960DC60F9
:10535000956070BC704700BF00ED00E0003802406F
:10536000FFFFF6FE1030002470B50024ACB0AB4D4A
:105370002C22214621A811940E941A941494CDE95C
:105380001244CDE90F44CDE91B44CDE91D44CDE9DC
:105390001F4404F0E2FDA24945F25F4240F2E733C8
:1053A0002846AC602C61EB60C5E90544C5E90012F4
:1053B000FDF7CAF9002840F09D804FF4805311A9F1
:1053C00096481193FDF79EFC002840F0908093488A
:1053D000FDF756FA002840F0878000230EA98F4879
:1053E0001093CDE90E33FDF7F5FD002879D10023A8
:1053F00060241AA989481A461B9320931A94CDE970
:105400001C33CDE91E33FDF7EFFA002866D10422E4
:105410001AA98248FDF7E8FA00285CD108221AA9E7
:105420007E48FDF7E1FA002852D11AA90C227B48E8
:10543000FDF7DAFA002848D100234FF400544FF06A
:10544000007221A97548259326942992CDE921332C
:10545000CDE92333CDE92733CDE92A33FDF7EAFD42
:1054600008B1FFF721FC2B6800246D4A1994934280
:10547000CDE91544CDE9174454D0B3F1804F7AD02B
:10548000684A934200F09580674A934200F0B180E9
:10549000664A934231D0664A934200F0E180654A01
:1054A000934200F0F280644A934200F01981634A0B
:1054B000934200F02A81624A934200F0FB80614AE5
:1054C000934200F036812CB070BDFFF7EDFBB3E7DF
:1054D000FFF7EAFBA9E7FFF7E7FB9FE7FFF7E4FB2E
:1054E00095E7FFF7E1FB82E7FFF7DEFB75E7FFF7E4
:1054F000DBFB6CE7FFF7D8FB5FE7534BC0260225C9
:1055000003241A6B15A9514842F004021A631B6B5D
:10551000159603F00403169519940793079BFCF75F
:105520000BF8D0E7484B01254FF4206002261A6B98
:1055300015A942F010021A631A6B02F010020092D1
:10554000009A1A6B2A431A631B6B15902B40404834
:1055500016960193019B1995FBF7EEFF4FF44063FC
:1055600015A93C48169619951593CDE91744FBF7F4
:10557000E3FF2CB070BD03F50E330226012540F683
:1055800008401A6B15A932431A631A6B3240029213
:10559000029A1A6B2A431A631B6B15902B402E48F4
:1055A00016960393039B1995FBF7C6FF4FF4004330
:1055B000D6E7254B02254FF4407015A91A6B42F02F
:1055C00004021A631A6B02F004020492049A1A6B22
:1055D0002A431A631B6B15902B401C4816950593A4
:1055E000059B1995FBF7A8FF302315A91A481695B6
:1055F000B9E7154B02244FF4704515A91A6B1748EB
:1056000042F008021A631B6B159503F00803169409
:1056100019940693069BFBF78FFF54E72053002055
:105620000000014000040040000800400004014068
:105630000040014000440140004801400018004083
:10564000001C0040002000400038024000080240DA
:10565000001002400000024000040240000C024022
:105660003F4B6026022503241A6B15A93D4842F0E2
:1056700010021A631B6B159603F01003169519940C
:105680000893089BFBF758FF1DE7354B4026022582
:1056900003241A6B15A9344842F020021A631B6BCD
:1056A000159603F02003169519940993099BFBF7AF
:1056B00043FF08E72A4B4FF48076022509241A6B32
:1056C00015A9294842F020021A631B6B159603F0B6
:1056D0002003169519940C930C9BFBF72DFFF2E613
:1056E0001F4B8026022503241A6B15A91E4842F081
:1056F00020021A631B6B159603F02003169519946C
:105700000A930A9BFBF718FFDDE6154B02254FF4C1
:10571000404609241A6B15A914482A431A631B6BC7
:1057200015962B40169519940B930B9BFBF704FFD2
:10573000C9E60B4B4FF40076022509241A6B15A914
:10574000094842F020021A631B6B159603F02003F0
:10575000169519940D930D9BFBF7EEFEB3E600BF73
:1057600000380240001002400014024000040240D1
:1057700070B54FF08040A34C42F62F210023A2B019
:1057800040F2E732236112930F931B93A3611593A9
:10579000C4E900012046C4E90232CDE91333CDE962
:1057A0001033CDE91C33CDE91E33CDE92033FCF7AE
:1057B000CBFF00287DD14FF4805312A9914812935A
:1057C000FDF7A0FA002871D18E48FDF759F800289E
:1057D00069D100230FA98B480F931193FDF7FAFBB2
:1057E00000285DD1002360251BA986481A461C931A
:1057F0001D931F931B95FDF7F7F800284DD1042248
:105800001BA98048FDF7F0F8002843D108221BA906
:105810007C48FDF7E9F8002839D11BA90C2279480A
:10582000FDF7E2F808B1FFF73FFA23680024764A53
:105830001A949342CDE91644CDE9184451D0B3F1FE
:10584000804F77D0714A934200F09280704A934221
:1058500000F0AE806F4A93422ED06F4A934200F020
:10586000BC806E4A934200F0EF806D4A934200F094
:1058700016816C4A934200F027816B4A934200F0F4
:10588000F8806A4A934200F0338122B070BDFFF77E
:105890000BFAC2E7FFF708FAB8E7FFF705FAAEE739
:1058A000FFF702FA9EE7FFF7FFF992E7FFF7FCF92F
:1058B0008AE7FFF7F9F97EE75D4BC026022503244E
:1058C0001A6B16A95B4842F004021A631B6B16960A
:1058D00003F0040317951A940893089BFBF72CFE1A
:1058E000D3E7534B01254FF4206002261A6B16A90B
:1058F00042F010021A631A6B02F010020192019A30
:105900001A6B2A431A631B6B16902B404A48179652
:105910000293029B1A95FBF70FFE4FF4406316A902
:10592000464817961A951693CDE91844FBF704FEDE
:1059300022B070BD03F50E330226012540F6084063
:105940001A6B16A932431A631A6B32400392039AF8
:105950001A6B2A431A631B6B16902B403848179614
:105960000493049B1A95FBF7E7FD4FF40043D6E739
:105970002F4B02254FF4407016A91A6B42F0040217
:105980001A631A6B02F004020592059A1A6B2A43F5
:105990001A631B6B16902B40264817950693069B9F
:1059A0001A95FBF7C9FD302316A925481795B9E7C5
:1059B0001F4B02244FF4704516A91A6B214842F080
:1059C00008021A631B6B169503F0080317941A94C8
:1059D0000793079BFBF7B0FD57E7154B60260225A1
:1059E00003241A6B16A9144842F010021A631B6BA9
:1059F000169603F0100317951A940993099BFBF769
:105A00009BFD42E7A053002000000140000400403D
:105A100000080040000401400040014000440140F3
:105A20000048014000180040001C004000200040D9
:105A3000003802400008024000100240000002400E
:105A400000040240000C0240344B4026022503248F
:105A50001A6B16A9324842F020021A631B6B169685
:105A600003F0200317951A940A930A9BFBF764FD31
:105A70000BE72A4B4FF48076022509241A6B16A9EE
:105A8000274842F020021A631B6B169603F020038E
:105A900017951A940D930D9BFBF74EFDF5E61F4BE2
:105AA0008026022503241A6B16A91D4842F0200205
:105AB0001A631B6B169603F0200317951A940B9329
:105AC0000B9BFBF739FDE0E6144B02254FF44046F3
:105AD00009241A6B16A913482A431A631B6B1696DE
